{
  "_format": "hh-sol-artifact-1",
  "contractName": "UserDatabase",
  "sourceName": "contracts/users.sol",
  "abi": [
    {
      "inputs": [
        {
          "internalType": "uint256",
          "name": "userId",
          "type": "uint256"
        }
      ],
      "name": "getUserData",
      "outputs": [
        {
          "components": [
            {
              "internalType": "uint256",
              "name": "registrationDate",
              "type": "uint256"
            },
            {
              "internalType": "address",
              "name": "defaultAddress",
              "type": "address"
            },
            {
              "internalType": "string",
              "name": "userName",
              "type": "string"
            },
            {
              "internalType": "string",
              "name": "userBio",
              "type": "string"
            },
            {
              "internalType": "string",
              "name": "imgUrl",
              "type": "string"
            },
            {
              "components": [
                {
                  "internalType": "uint256",
                  "name": "platform",
                  "type": "uint256"
                },
                {
                  "internalType": "string",
                  "name": "id",
                  "type": "string"
                },
                {
                  "internalType": "address",
                  "name": "_address",
                  "type": "address"
                }
              ],
              "internalType": "struct UserDatabase.Profile[]",
              "name": "linkedProfiles",
              "type": "tuple[]"
            }
          ],
          "internalType": "struct UserDatabase.UserData",
          "name": "",
          "type": "tuple"
        }
      ],
      "stateMutability": "view",
      "type": "function"
    },
    {
      "inputs": [
        {
          "internalType": "string",
          "name": "userName",
          "type": "string"
        }
      ],
      "name": "getUserData",
      "outputs": [
        {
          "components": [
            {
              "internalType": "uint256",
              "name": "registrationDate",
              "type": "uint256"
            },
            {
              "internalType": "address",
              "name": "defaultAddress",
              "type": "address"
            },
            {
              "internalType": "string",
              "name": "userName",
              "type": "string"
            },
            {
              "internalType": "string",
              "name": "userBio",
              "type": "string"
            },
            {
              "internalType": "string",
              "name": "imgUrl",
              "type": "string"
            },
            {
              "components": [
                {
                  "internalType": "uint256",
                  "name": "platform",
                  "type": "uint256"
                },
                {
                  "internalType": "string",
                  "name": "id",
                  "type": "string"
                },
                {
                  "internalType": "address",
                  "name": "_address",
                  "type": "address"
                }
              ],
              "internalType": "struct UserDatabase.Profile[]",
              "name": "linkedProfiles",
              "type": "tuple[]"
            }
          ],
          "internalType": "struct UserDatabase.UserData",
          "name": "",
          "type": "tuple"
        }
      ],
      "stateMutability": "view",
      "type": "function"
    },
    {
      "inputs": [
        {
          "internalType": "bytes",
          "name": "userProfile",
          "type": "bytes"
        }
      ],
      "name": "getUserData",
      "outputs": [
        {
          "components": [
            {
              "internalType": "uint256",
              "name": "registrationDate",
              "type": "uint256"
            },
            {
              "internalType": "address",
              "name": "defaultAddress",
              "type": "address"
            },
            {
              "internalType": "string",
              "name": "userName",
              "type": "string"
            },
            {
              "internalType": "string",
              "name": "userBio",
              "type": "string"
            },
            {
              "internalType": "string",
              "name": "imgUrl",
              "type": "string"
            },
            {
              "components": [
                {
                  "internalType": "uint256",
                  "name": "platform",
                  "type": "uint256"
                },
                {
                  "internalType": "string",
                  "name": "id",
                  "type": "string"
                },
                {
                  "internalType": "address",
                  "name": "_address",
                  "type": "address"
                }
              ],
              "internalType": "struct UserDatabase.Profile[]",
              "name": "linkedProfiles",
              "type": "tuple[]"
            }
          ],
          "internalType": "struct UserDatabase.UserData",
          "name": "",
          "type": "tuple"
        }
      ],
      "stateMutability": "view",
      "type": "function"
    },
    {
      "inputs": [
        {
          "internalType": "address",
          "name": "userAddress",
          "type": "address"
        }
      ],
      "name": "getUserData",
      "outputs": [
        {
          "components": [
            {
              "internalType": "uint256",
              "name": "registrationDate",
              "type": "uint256"
            },
            {
              "internalType": "address",
              "name": "defaultAddress",
              "type": "address"
            },
            {
              "internalType": "string",
              "name": "userName",
              "type": "string"
            },
            {
              "internalType": "string",
              "name": "userBio",
              "type": "string"
            },
            {
              "internalType": "string",
              "name": "imgUrl",
              "type": "string"
            },
            {
              "components": [
                {
                  "internalType": "uint256",
                  "name": "platform",
                  "type": "uint256"
                },
                {
                  "internalType": "string",
                  "name": "id",
                  "type": "string"
                },
                {
                  "internalType": "address",
                  "name": "_address",
                  "type": "address"
                }
              ],
              "internalType": "struct UserDatabase.Profile[]",
              "name": "linkedProfiles",
              "type": "tuple[]"
            }
          ],
          "internalType": "struct UserDatabase.UserData",
          "name": "",
          "type": "tuple"
        }
      ],
      "stateMutability": "view",
      "type": "function"
    },
    {
      "inputs": [
        {
          "internalType": "string",
          "name": "userName",
          "type": "string"
        }
      ],
      "name": "isUser",
      "outputs": [
        {
          "internalType": "bool",
          "name": "",
          "type": "bool"
        }
      ],
      "stateMutability": "view",
      "type": "function"
    },
    {
      "inputs": [
        {
          "internalType": "uint256",
          "name": "userId",
          "type": "uint256"
        }
      ],
      "name": "isUser",
      "outputs": [
        {
          "internalType": "bool",
          "name": "",
          "type": "bool"
        }
      ],
      "stateMutability": "view",
      "type": "function"
    },
    {
      "inputs": [
        {
          "internalType": "address",
          "name": "userAddress",
          "type": "address"
        }
      ],
      "name": "isUser",
      "outputs": [
        {
          "internalType": "bool",
          "name": "",
          "type": "bool"
        }
      ],
      "stateMutability": "view",
      "type": "function"
    },
    {
      "inputs": [
        {
          "internalType": "bytes",
          "name": "userProfile",
          "type": "bytes"
        }
      ],
      "name": "isUser",
      "outputs": [
        {
          "internalType": "bool",
          "name": "",
          "type": "bool"
        }
      ],
      "stateMutability": "view",
      "type": "function"
    },
    {
      "inputs": [
        {
          "internalType": "address",
          "name": "userAddress",
          "type": "address"
        },
        {
          "internalType": "string",
          "name": "userName",
          "type": "string"
        }
      ],
      "name": "userNameAvailable",
      "outputs": [
        {
          "internalType": "bool",
          "name": "",
          "type": "bool"
        }
      ],
      "stateMutability": "view",
      "type": "function"
    }
  ],
  "bytecode": "0x608060405234801561001057600080fd5b50611ab5806100206000396000f3fe608060405234801561001057600080fd5b50600436106100935760003560e01c806354ab24031161006657806354ab240314610158578063a9595e6e14610188578063d837b84d146101b8578063f7c67e2e146101e8578063ffc9896b1461021857610093565b806305bbd7e01461009857806318a9cc1b146100c85780631fef580c146100f85780634209fff114610128575b600080fd5b6100b260048036038101906100ad919061144c565b610248565b6040516100bf91906114b0565b60405180910390f35b6100e260048036038101906100dd9190611501565b610287565b6040516100ef91906114b0565b60405180910390f35b610112600480360381019061010d9190611501565b6102a9565b60405161011f91906117ad565b60405180910390f35b610142600480360381019061013d91906117fb565b61063d565b60405161014f91906114b0565b60405180910390f35b610172600480360381019061016d919061144c565b61069e565b60405161017f91906117ad565b60405180910390f35b6101a2600480360381019061019d91906118c9565b610a4f565b6040516101af91906114b0565b60405180910390f35b6101d260048036038101906101cd9190611912565b610a8f565b6040516101df91906114b0565b60405180910390f35b61020260048036038101906101fd91906118c9565b610b21565b60405161020f91906117ad565b60405180910390f35b610232600480360381019061022d91906117fb565b610ed3565b60405161023f91906117ad565b60405180910390f35b60008060026000808560405161025e91906119aa565b908152602001604051809103902054815260200190815260200160002060000154119050919050565b6000806002600084815260200190815260200160002060000154119050919050565b6102b16112a6565b600260008381526020019081526020016000206040518060c0016040529081600082015481526020016001820160009054906101000a900473ffffffffffffffffffffffffffffffffffffffff1673ffffffffffffffffffffffffffffffffffffffff1673ffffffffffffffffffffffffffffffffffffffff16815260200160028201805461033f906119f0565b80601f016020809104026020016040519081016040528092919081815260200182805461036b906119f0565b80156103b85780601f1061038d576101008083540402835291602001916103b8565b820191906000526020600020905b81548152906001019060200180831161039b57829003601f168201915b505050505081526020016003820180546103d1906119f0565b80601f01602080910402602001604051908101604052809291908181526020018280546103fd906119f0565b801561044a5780601f1061041f5761010080835404028352916020019161044a565b820191906000526020600020905b81548152906001019060200180831161042d57829003601f168201915b50505050508152602001600482018054610463906119f0565b80601f016020809104026020016040519081016040528092919081815260200182805461048f906119f0565b80156104dc5780601f106104b1576101008083540402835291602001916104dc565b820191906000526020600020905b8154815290600101906020018083116104bf57829003601f168201915b5050505050815260200160058201805480602002602001604051908101604052809291908181526020016000905b8282101561062e578382906000526020600020906003020160405180606001604052908160008201548152602001600182018054610547906119f0565b80601f0160208091040260200160405190810160405280929190818152602001828054610573906119f0565b80156105c05780601f10610595576101008083540402835291602001916105c0565b820191906000526020600020905b8154815290600101906020018083116105a357829003601f168201915b505050505081526020016002820160009054906101000a900473ffffffffffffffffffffffffffffffffffffffff1673ffffffffffffffffffffffffffffffffffffffff1673ffffffffffffffffffffffffffffffffffffffff16815250508152602001906001019061050a565b50505050815250509050919050565b60008060026000600160008673ffffffffffffffffffffffffffffffffffffffff1673ffffffffffffffffffffffffffffffffffffffff16815260200190815260200160002054815260200190815260200160002060000154119050919050565b6106a66112a6565b6002600080846040516106b991906119aa565b90815260200160405180910390205481526020019081526020016000206040518060c0016040529081600082015481526020016001820160009054906101000a900473ffffffffffffffffffffffffffffffffffffffff1673ffffffffffffffffffffffffffffffffffffffff1673ffffffffffffffffffffffffffffffffffffffff168152602001600282018054610751906119f0565b80601f016020809104026020016040519081016040528092919081815260200182805461077d906119f0565b80156107ca5780601f1061079f576101008083540402835291602001916107ca565b820191906000526020600020905b8154815290600101906020018083116107ad57829003601f168201915b505050505081526020016003820180546107e3906119f0565b80601f016020809104026020016040519081016040528092919081815260200182805461080f906119f0565b801561085c5780601f106108315761010080835404028352916020019161085c565b820191906000526020600020905b81548152906001019060200180831161083f57829003601f168201915b50505050508152602001600482018054610875906119f0565b80601f01602080910402602001604051908101604052809291908181526020018280546108a1906119f0565b80156108ee5780601f106108c3576101008083540402835291602001916108ee565b820191906000526020600020905b8154815290600101906020018083116108d157829003601f168201915b5050505050815260200160058201805480602002602001604051908101604052809291908181526020016000905b82821015610a40578382906000526020600020906003020160405180606001604052908160008201548152602001600182018054610959906119f0565b80601f0160208091040260200160405190810160405280929190818152602001828054610985906119f0565b80156109d25780601f106109a7576101008083540402835291602001916109d2565b820191906000526020600020905b8154815290600101906020018083116109b557829003601f168201915b505050505081526020016002820160009054906101000a900473ffffffffffffffffffffffffffffffffffffffff1673ffffffffffffffffffffffffffffffffffffffff1673ffffffffffffffffffffffffffffffffffffffff16815250508152602001906001019061091c565b50505050815250509050919050565b60008060026000600485604051610a669190611a68565b908152602001604051809103902054815260200190815260200160002060000154119050919050565b600080600083604051610aa291906119aa565b9081526020016040518091039020541480610b195750600160008473ffffffffffffffffffffffffffffffffffffffff1673ffffffffffffffffffffffffffffffffffffffff16815260200190815260200160002054600083604051610b0891906119aa565b908152602001604051809103902054145b905092915050565b610b296112a6565b60026000600484604051610b3d9190611a68565b90815260200160405180910390205481526020019081526020016000206040518060c0016040529081600082015481526020016001820160009054906101000a900473ffffffffffffffffffffffffffffffffffffffff1673ffffffffffffffffffffffffffffffffffffffff1673ffffffffffffffffffffffffffffffffffffffff168152602001600282018054610bd5906119f0565b80601f0160208091040260200160405190810160405280929190818152602001828054610c01906119f0565b8015610c4e5780601f10610c2357610100808354040283529160200191610c4e565b820191906000526020600020905b815481529060010190602001808311610c3157829003601f168201915b50505050508152602001600382018054610c67906119f0565b80601f0160208091040260200160405190810160405280929190818152602001828054610c93906119f0565b8015610ce05780601f10610cb557610100808354040283529160200191610ce0565b820191906000526020600020905b815481529060010190602001808311610cc357829003601f168201915b50505050508152602001600482018054610cf9906119f0565b80601f0160208091040260200160405190810160405280929190818152602001828054610d25906119f0565b8015610d725780601f10610d4757610100808354040283529160200191610d72565b820191906000526020600020905b815481529060010190602001808311610d5557829003601f168201915b5050505050815260200160058201805480602002602001604051908101604052809291908181526020016000905b82821015610ec4578382906000526020600020906003020160405180606001604052908160008201548152602001600182018054610ddd906119f0565b80601f0160208091040260200160405190810160405280929190818152602001828054610e09906119f0565b8015610e565780601f10610e2b57610100808354040283529160200191610e56565b820191906000526020600020905b815481529060010190602001808311610e3957829003601f168201915b505050505081526020016002820160009054906101000a900473ffffffffffffffffffffffffffffffffffffffff1673ffffffffffffffffffffffffffffffffffffffff1673ffffffffffffffffffffffffffffffffffffffff168152505081526020019060010190610da0565b50505050815250509050919050565b610edb6112a6565b60026000600160008573ffffffffffffffffffffffffffffffffffffffff1673ffffffffffffffffffffffffffffffffffffffff1681526020019081526020016000205481526020019081526020016000206040518060c0016040529081600082015481526020016001820160009054906101000a900473ffffffffffffffffffffffffffffffffffffffff1673ffffffffffffffffffffffffffffffffffffffff1673ffffffffffffffffffffffffffffffffffffffff168152602001600282018054610fa8906119f0565b80601f0160208091040260200160405190810160405280929190818152602001828054610fd4906119f0565b80156110215780601f10610ff657610100808354040283529160200191611021565b820191906000526020600020905b81548152906001019060200180831161100457829003601f168201915b5050505050815260200160038201805461103a906119f0565b80601f0160208091040260200160405190810160405280929190818152602001828054611066906119f0565b80156110b35780601f10611088576101008083540402835291602001916110b3565b820191906000526020600020905b81548152906001019060200180831161109657829003601f168201915b505050505081526020016004820180546110cc906119f0565b80601f01602080910402602001604051908101604052809291908181526020018280546110f8906119f0565b80156111455780601f1061111a57610100808354040283529160200191611145565b820191906000526020600020905b81548152906001019060200180831161112857829003601f168201915b5050505050815260200160058201805480602002602001604051908101604052809291908181526020016000905b828210156112975783829060005260206000209060030201604051806060016040529081600082015481526020016001820180546111b0906119f0565b80601f01602080910402602001604051908101604052809291908181526020018280546111dc906119f0565b80156112295780601f106111fe57610100808354040283529160200191611229565b820191906000526020600020905b81548152906001019060200180831161120c57829003601f168201915b505050505081526020016002820160009054906101000a900473ffffffffffffffffffffffffffffffffffffffff1673ffffffffffffffffffffffffffffffffffffffff1673ffffffffffffffffffffffffffffffffffffffff168152505081526020019060010190611173565b50505050815250509050919050565b6040518060c0016040528060008152602001600073ffffffffffffffffffffffffffffffffffffffff168152602001606081526020016060815260200160608152602001606081525090565b6000604051905090565b600080fd5b600080fd5b600080fd5b600080fd5b6000601f19601f8301169050919050565b7f4e487b7100000000000000000000000000000000000000000000000000000000600052604160045260246000fd5b61135982611310565b810181811067ffffffffffffffff8211171561137857611377611321565b5b80604052505050565b600061138b6112f2565b90506113978282611350565b919050565b600067ffffffffffffffff8211156113b7576113b6611321565b5b6113c082611310565b9050602081019050919050565b82818337600083830152505050565b60006113ef6113ea8461139c565b611381565b90508281526020810184848401111561140b5761140a61130b565b5b6114168482856113cd565b509392505050565b600082601f83011261143357611432611306565b5b81356114438482602086016113dc565b91505092915050565b600060208284031215611462576114616112fc565b5b600082013567ffffffffffffffff8111156114805761147f611301565b5b61148c8482850161141e565b91505092915050565b60008115159050919050565b6114aa81611495565b82525050565b60006020820190506114c560008301846114a1565b92915050565b6000819050919050565b6114de816114cb565b81146114e957600080fd5b50565b6000813590506114fb816114d5565b92915050565b600060208284031215611517576115166112fc565b5b6000611525848285016114ec565b91505092915050565b611537816114cb565b82525050565b600073ffffffffffffffffffffffffffffffffffffffff82169050919050565b60006115688261153d565b9050919050565b6115788161155d565b82525050565b600081519050919050565b600082825260208201905092915050565b60005b838110156115b857808201518184015260208101905061159d565b60008484015250505050565b60006115cf8261157e565b6115d98185611589565b93506115e981856020860161159a565b6115f281611310565b840191505092915050565b600081519050919050565b600082825260208201905092915050565b6000819050602082019050919050565b6000606083016000830151611641600086018261152e565b506020830151848203602086015261165982826115c4565b915050604083015161166e604086018261156f565b508091505092915050565b60006116858383611629565b905092915050565b6000602082019050919050565b60006116a5826115fd565b6116af8185611608565b9350836020820285016116c185611619565b8060005b858110156116fd57848403895281516116de8582611679565b94506116e98361168d565b925060208a019950506001810190506116c5565b50829750879550505050505092915050565b600060c083016000830151611727600086018261152e565b50602083015161173a602086018261156f565b506040830151848203604086015261175282826115c4565b9150506060830151848203606086015261176c82826115c4565b9150506080830151848203608086015261178682826115c4565b91505060a083015184820360a08601526117a0828261169a565b9150508091505092915050565b600060208201905081810360008301526117c7818461170f565b905092915050565b6117d88161155d565b81146117e357600080fd5b50565b6000813590506117f5816117cf565b92915050565b600060208284031215611811576118106112fc565b5b600061181f848285016117e6565b91505092915050565b600067ffffffffffffffff82111561184357611842611321565b5b61184c82611310565b9050602081019050919050565b600061186c61186784611828565b611381565b9050828152602081018484840111156118885761188761130b565b5b6118938482856113cd565b509392505050565b600082601f8301126118b0576118af611306565b5b81356118c0848260208601611859565b91505092915050565b6000602082840312156118df576118de6112fc565b5b600082013567ffffffffffffffff8111156118fd576118fc611301565b5b6119098482850161189b565b91505092915050565b60008060408385031215611929576119286112fc565b5b6000611937858286016117e6565b925050602083013567ffffffffffffffff81111561195857611957611301565b5b6119648582860161141e565b9150509250929050565b600081905092915050565b60006119848261157e565b61198e818561196e565b935061199e81856020860161159a565b80840191505092915050565b60006119b68284611979565b915081905092915050565b7f4e487b7100000000000000000000000000000000000000000000000000000000600052602260045260246000fd5b60006002820490506001821680611a0857607f821691505b602082108103611a1b57611a1a6119c1565b5b50919050565b600081519050919050565b600081905092915050565b6000611a4282611a21565b611a4c8185611a2c565b9350611a5c81856020860161159a565b80840191505092915050565b6000611a748284611a37565b91508190509291505056fea2646970667358221220882515afad8655f03880498a97650184e16445b5862e25f517f66b03ac4dcec364736f6c63430008160033",
  "linkReferences": {},
  "deployedLinkReferences": {}
}