{
  "_format": "hh-sol-artifact-1",
  "contractName": "UserControl",
  "sourceName": "contracts/userControl.sol",
  "abi": [
    {
      "inputs": [],
      "stateMutability": "nonpayable",
      "type": "constructor"
    },
    {
      "inputs": [
        {
          "internalType": "uint256",
          "name": "userId",
          "type": "uint256"
        }
      ],
      "name": "getUserData",
      "outputs": [
        {
          "components": [
            {
              "internalType": "uint256",
              "name": "registrationDate",
              "type": "uint256"
            },
            {
              "internalType": "address",
              "name": "defaultAddress",
              "type": "address"
            },
            {
              "internalType": "string",
              "name": "userName",
              "type": "string"
            },
            {
              "internalType": "string",
              "name": "userBio",
              "type": "string"
            },
            {
              "internalType": "string",
              "name": "imgUrl",
              "type": "string"
            },
            {
              "components": [
                {
                  "internalType": "uint256",
                  "name": "platform",
                  "type": "uint256"
                },
                {
                  "internalType": "string",
                  "name": "id",
                  "type": "string"
                },
                {
                  "internalType": "address",
                  "name": "_address",
                  "type": "address"
                }
              ],
              "internalType": "struct UserDatabase.Profile[]",
              "name": "linkedProfiles",
              "type": "tuple[]"
            }
          ],
          "internalType": "struct UserDatabase.UserData",
          "name": "",
          "type": "tuple"
        }
      ],
      "stateMutability": "view",
      "type": "function"
    },
    {
      "inputs": [
        {
          "internalType": "string",
          "name": "userName",
          "type": "string"
        }
      ],
      "name": "getUserData",
      "outputs": [
        {
          "components": [
            {
              "internalType": "uint256",
              "name": "registrationDate",
              "type": "uint256"
            },
            {
              "internalType": "address",
              "name": "defaultAddress",
              "type": "address"
            },
            {
              "internalType": "string",
              "name": "userName",
              "type": "string"
            },
            {
              "internalType": "string",
              "name": "userBio",
              "type": "string"
            },
            {
              "internalType": "string",
              "name": "imgUrl",
              "type": "string"
            },
            {
              "components": [
                {
                  "internalType": "uint256",
                  "name": "platform",
                  "type": "uint256"
                },
                {
                  "internalType": "string",
                  "name": "id",
                  "type": "string"
                },
                {
                  "internalType": "address",
                  "name": "_address",
                  "type": "address"
                }
              ],
              "internalType": "struct UserDatabase.Profile[]",
              "name": "linkedProfiles",
              "type": "tuple[]"
            }
          ],
          "internalType": "struct UserDatabase.UserData",
          "name": "",
          "type": "tuple"
        }
      ],
      "stateMutability": "view",
      "type": "function"
    },
    {
      "inputs": [
        {
          "internalType": "bytes",
          "name": "userProfile",
          "type": "bytes"
        }
      ],
      "name": "getUserData",
      "outputs": [
        {
          "components": [
            {
              "internalType": "uint256",
              "name": "registrationDate",
              "type": "uint256"
            },
            {
              "internalType": "address",
              "name": "defaultAddress",
              "type": "address"
            },
            {
              "internalType": "string",
              "name": "userName",
              "type": "string"
            },
            {
              "internalType": "string",
              "name": "userBio",
              "type": "string"
            },
            {
              "internalType": "string",
              "name": "imgUrl",
              "type": "string"
            },
            {
              "components": [
                {
                  "internalType": "uint256",
                  "name": "platform",
                  "type": "uint256"
                },
                {
                  "internalType": "string",
                  "name": "id",
                  "type": "string"
                },
                {
                  "internalType": "address",
                  "name": "_address",
                  "type": "address"
                }
              ],
              "internalType": "struct UserDatabase.Profile[]",
              "name": "linkedProfiles",
              "type": "tuple[]"
            }
          ],
          "internalType": "struct UserDatabase.UserData",
          "name": "",
          "type": "tuple"
        }
      ],
      "stateMutability": "view",
      "type": "function"
    },
    {
      "inputs": [
        {
          "internalType": "address",
          "name": "userAddress",
          "type": "address"
        }
      ],
      "name": "getUserData",
      "outputs": [
        {
          "components": [
            {
              "internalType": "uint256",
              "name": "registrationDate",
              "type": "uint256"
            },
            {
              "internalType": "address",
              "name": "defaultAddress",
              "type": "address"
            },
            {
              "internalType": "string",
              "name": "userName",
              "type": "string"
            },
            {
              "internalType": "string",
              "name": "userBio",
              "type": "string"
            },
            {
              "internalType": "string",
              "name": "imgUrl",
              "type": "string"
            },
            {
              "components": [
                {
                  "internalType": "uint256",
                  "name": "platform",
                  "type": "uint256"
                },
                {
                  "internalType": "string",
                  "name": "id",
                  "type": "string"
                },
                {
                  "internalType": "address",
                  "name": "_address",
                  "type": "address"
                }
              ],
              "internalType": "struct UserDatabase.Profile[]",
              "name": "linkedProfiles",
              "type": "tuple[]"
            }
          ],
          "internalType": "struct UserDatabase.UserData",
          "name": "",
          "type": "tuple"
        }
      ],
      "stateMutability": "view",
      "type": "function"
    },
    {
      "inputs": [
        {
          "internalType": "string",
          "name": "userName",
          "type": "string"
        }
      ],
      "name": "isUser",
      "outputs": [
        {
          "internalType": "bool",
          "name": "",
          "type": "bool"
        }
      ],
      "stateMutability": "view",
      "type": "function"
    },
    {
      "inputs": [
        {
          "internalType": "uint256",
          "name": "userId",
          "type": "uint256"
        }
      ],
      "name": "isUser",
      "outputs": [
        {
          "internalType": "bool",
          "name": "",
          "type": "bool"
        }
      ],
      "stateMutability": "view",
      "type": "function"
    },
    {
      "inputs": [
        {
          "internalType": "address",
          "name": "userAddress",
          "type": "address"
        }
      ],
      "name": "isUser",
      "outputs": [
        {
          "internalType": "bool",
          "name": "",
          "type": "bool"
        }
      ],
      "stateMutability": "view",
      "type": "function"
    },
    {
      "inputs": [
        {
          "internalType": "bytes",
          "name": "userProfile",
          "type": "bytes"
        }
      ],
      "name": "isUser",
      "outputs": [
        {
          "internalType": "bool",
          "name": "",
          "type": "bool"
        }
      ],
      "stateMutability": "view",
      "type": "function"
    },
    {
      "inputs": [
        {
          "internalType": "uint256",
          "name": "id",
          "type": "uint256"
        },
        {
          "internalType": "address",
          "name": "userAddress",
          "type": "address"
        },
        {
          "components": [
            {
              "internalType": "uint256",
              "name": "registrationDate",
              "type": "uint256"
            },
            {
              "internalType": "address",
              "name": "defaultAddress",
              "type": "address"
            },
            {
              "internalType": "string",
              "name": "userName",
              "type": "string"
            },
            {
              "internalType": "string",
              "name": "userBio",
              "type": "string"
            },
            {
              "internalType": "string",
              "name": "imgUrl",
              "type": "string"
            },
            {
              "components": [
                {
                  "internalType": "uint256",
                  "name": "platform",
                  "type": "uint256"
                },
                {
                  "internalType": "string",
                  "name": "id",
                  "type": "string"
                },
                {
                  "internalType": "address",
                  "name": "_address",
                  "type": "address"
                }
              ],
              "internalType": "struct UserDatabase.Profile[]",
              "name": "linkedProfiles",
              "type": "tuple[]"
            }
          ],
          "internalType": "struct UserDatabase.UserData",
          "name": "newData",
          "type": "tuple"
        }
      ],
      "name": "overrideUserData",
      "outputs": [],
      "stateMutability": "nonpayable",
      "type": "function"
    },
    {
      "inputs": [],
      "name": "owner",
      "outputs": [
        {
          "internalType": "address",
          "name": "",
          "type": "address"
        }
      ],
      "stateMutability": "view",
      "type": "function"
    },
    {
      "inputs": [
        {
          "components": [
            {
              "internalType": "uint256",
              "name": "registrationDate",
              "type": "uint256"
            },
            {
              "internalType": "address",
              "name": "defaultAddress",
              "type": "address"
            },
            {
              "internalType": "string",
              "name": "userName",
              "type": "string"
            },
            {
              "internalType": "string",
              "name": "userBio",
              "type": "string"
            },
            {
              "internalType": "string",
              "name": "imgUrl",
              "type": "string"
            },
            {
              "components": [
                {
                  "internalType": "uint256",
                  "name": "platform",
                  "type": "uint256"
                },
                {
                  "internalType": "string",
                  "name": "id",
                  "type": "string"
                },
                {
                  "internalType": "address",
                  "name": "_address",
                  "type": "address"
                }
              ],
              "internalType": "struct UserDatabase.Profile[]",
              "name": "linkedProfiles",
              "type": "tuple[]"
            }
          ],
          "internalType": "struct UserDatabase.UserData",
          "name": "newData",
          "type": "tuple"
        }
      ],
      "name": "setUserData",
      "outputs": [],
      "stateMutability": "nonpayable",
      "type": "function"
    },
    {
      "inputs": [
        {
          "internalType": "address",
          "name": "admin",
          "type": "address"
        }
      ],
      "name": "toggleAdmin",
      "outputs": [],
      "stateMutability": "nonpayable",
      "type": "function"
    },
    {
      "inputs": [
        {
          "internalType": "address",
          "name": "userAddress",
          "type": "address"
        },
        {
          "internalType": "string",
          "name": "userName",
          "type": "string"
        }
      ],
      "name": "userNameAvailable",
      "outputs": [
        {
          "internalType": "bool",
          "name": "",
          "type": "bool"
        }
      ],
      "stateMutability": "view",
      "type": "function"
    },
    {
      "inputs": [
        {
          "internalType": "address",
          "name": "userAddress",
          "type": "address"
        },
        {
          "components": [
            {
              "internalType": "uint256",
              "name": "platform",
              "type": "uint256"
            },
            {
              "internalType": "string",
              "name": "id",
              "type": "string"
            },
            {
              "internalType": "address",
              "name": "_address",
              "type": "address"
            }
          ],
          "internalType": "struct UserDatabase.Profile",
          "name": "profile",
          "type": "tuple"
        },
        {
          "internalType": "bool",
          "name": "verified",
          "type": "bool"
        }
      ],
      "name": "verifyProfile",
      "outputs": [],
      "stateMutability": "nonpayable",
      "type": "function"
    }
  ],
  "bytecode": "0x608060405234801561001057600080fd5b5033600560006101000a81548173ffffffffffffffffffffffffffffffffffffffff021916908373ffffffffffffffffffffffffffffffffffffffff160217905550613f52806100616000396000f3fe608060405234801561001057600080fd5b50600436106100ea5760003560e01c80635b765d9d1161008c578063d3b8614111610066578063d3b8614114610281578063d837b84d1461029d578063f7c67e2e146102cd578063ffc9896b146102fd576100ea565b80635b765d9d146102175780638da5cb5b14610233578063a9595e6e14610251576100ea565b806322411fc0116100c857806322411fc01461017f5780632dc57b291461019b5780634209fff1146101b757806354ab2403146101e7576100ea565b806305bbd7e0146100ef57806318a9cc1b1461011f5780631fef580c1461014f575b600080fd5b610109600480360381019061010491906128bd565b61032d565b6040516101169190612921565b60405180910390f35b61013960048036038101906101349190612972565b61036c565b6040516101469190612921565b60405180910390f35b61016960048036038101906101649190612972565b61038e565b6040516101769190612c1e565b60405180910390f35b61019960048036038101906101949190612cbc565b610722565b005b6101b560048036038101906101b09190612d4a565b610816565b005b6101d160048036038101906101cc9190612db9565b61090a565b6040516101de9190612921565b60405180910390f35b61020160048036038101906101fc91906128bd565b61096b565b60405161020e9190612c1e565b60405180910390f35b610231600480360381019061022c9190612de6565b610d1c565b005b61023b610d29565b6040516102489190612e3e565b60405180910390f35b61026b60048036038101906102669190612efa565b610d4f565b6040516102789190612921565b60405180910390f35b61029b60048036038101906102969190612db9565b610d8f565b005b6102b760048036038101906102b29190612f43565b610e90565b6040516102c49190612921565b60405180910390f35b6102e760048036038101906102e29190612efa565b610f22565b6040516102f49190612c1e565b60405180910390f35b61031760048036038101906103129190612db9565b6112d4565b6040516103249190612c1e565b60405180910390f35b6000806002600080856040516103439190612fdb565b908152602001604051809103902054815260200190815260200160002060000154119050919050565b6000806002600084815260200190815260200160002060000154119050919050565b6103966126ba565b600260008381526020019081526020016000206040518060c0016040529081600082015481526020016001820160009054906101000a900473ffffffffffffffffffffffffffffffffffffffff1673ffffffffffffffffffffffffffffffffffffffff1673ffffffffffffffffffffffffffffffffffffffff16815260200160028201805461042490613021565b80601f016020809104026020016040519081016040528092919081815260200182805461045090613021565b801561049d5780601f106104725761010080835404028352916020019161049d565b820191906000526020600020905b81548152906001019060200180831161048057829003601f168201915b505050505081526020016003820180546104b690613021565b80601f01602080910402602001604051908101604052809291908181526020018280546104e290613021565b801561052f5780601f106105045761010080835404028352916020019161052f565b820191906000526020600020905b81548152906001019060200180831161051257829003601f168201915b5050505050815260200160048201805461054890613021565b80601f016020809104026020016040519081016040528092919081815260200182805461057490613021565b80156105c15780601f10610596576101008083540402835291602001916105c1565b820191906000526020600020905b8154815290600101906020018083116105a457829003601f168201915b5050505050815260200160058201805480602002602001604051908101604052809291908181526020016000905b8282101561071357838290600052602060002090600302016040518060600160405290816000820154815260200160018201805461062c90613021565b80601f016020809104026020016040519081016040528092919081815260200182805461065890613021565b80156106a55780601f1061067a576101008083540402835291602001916106a5565b820191906000526020600020905b81548152906001019060200180831161068857829003601f168201915b505050505081526020016002820160009054906101000a900473ffffffffffffffffffffffffffffffffffffffff1673ffffffffffffffffffffffffffffffffffffffff1673ffffffffffffffffffffffffffffffffffffffff1681525050815260200190600101906105ef565b50505050815250509050919050565b600560009054906101000a900473ffffffffffffffffffffffffffffffffffffffff1673ffffffffffffffffffffffffffffffffffffffff163373ffffffffffffffffffffffffffffffffffffffff1614806107c75750600660003373ffffffffffffffffffffffffffffffffffffffff1673ffffffffffffffffffffffffffffffffffffffff16815260200190815260200160002060009054906101000a900460ff165b610806576040517f08c379a00000000000000000000000000000000000000000000000000000000081526004016107fd906130af565b60405180910390fd5b6108118383836116a7565b505050565b600560009054906101000a900473ffffffffffffffffffffffffffffffffffffffff1673ffffffffffffffffffffffffffffffffffffffff163373ffffffffffffffffffffffffffffffffffffffff1614806108bb5750600660003373ffffffffffffffffffffffffffffffffffffffff1673ffffffffffffffffffffffffffffffffffffffff16815260200190815260200160002060009054906101000a900460ff165b6108fa576040517f08c379a00000000000000000000000000000000000000000000000000000000081526004016108f1906130af565b60405180910390fd5b610905838383611856565b505050565b60008060026000600160008673ffffffffffffffffffffffffffffffffffffffff1673ffffffffffffffffffffffffffffffffffffffff16815260200190815260200160002054815260200190815260200160002060000154119050919050565b6109736126ba565b6002600080846040516109869190612fdb565b90815260200160405180910390205481526020019081526020016000206040518060c0016040529081600082015481526020016001820160009054906101000a900473ffffffffffffffffffffffffffffffffffffffff1673ffffffffffffffffffffffffffffffffffffffff1673ffffffffffffffffffffffffffffffffffffffff168152602001600282018054610a1e90613021565b80601f0160208091040260200160405190810160405280929190818152602001828054610a4a90613021565b8015610a975780601f10610a6c57610100808354040283529160200191610a97565b820191906000526020600020905b815481529060010190602001808311610a7a57829003601f168201915b50505050508152602001600382018054610ab090613021565b80601f0160208091040260200160405190810160405280929190818152602001828054610adc90613021565b8015610b295780601f10610afe57610100808354040283529160200191610b29565b820191906000526020600020905b815481529060010190602001808311610b0c57829003601f168201915b50505050508152602001600482018054610b4290613021565b80601f0160208091040260200160405190810160405280929190818152602001828054610b6e90613021565b8015610bbb5780601f10610b9057610100808354040283529160200191610bbb565b820191906000526020600020905b815481529060010190602001808311610b9e57829003601f168201915b5050505050815260200160058201805480602002602001604051908101604052809291908181526020016000905b82821015610d0d578382906000526020600020906003020160405180606001604052908160008201548152602001600182018054610c2690613021565b80601f0160208091040260200160405190810160405280929190818152602001828054610c5290613021565b8015610c9f5780601f10610c7457610100808354040283529160200191610c9f565b820191906000526020600020905b815481529060010190602001808311610c8257829003601f168201915b505050505081526020016002820160009054906101000a900473ffffffffffffffffffffffffffffffffffffffff1673ffffffffffffffffffffffffffffffffffffffff1673ffffffffffffffffffffffffffffffffffffffff168152505081526020019060010190610be9565b50505050815250509050919050565b610d26338261194a565b50565b600560009054906101000a900473ffffffffffffffffffffffffffffffffffffffff1681565b60008060026000600485604051610d669190613116565b908152602001604051809103902054815260200190815260200160002060000154119050919050565b600560009054906101000a900473ffffffffffffffffffffffffffffffffffffffff1673ffffffffffffffffffffffffffffffffffffffff163373ffffffffffffffffffffffffffffffffffffffff1614610de957600080fd5b600660008273ffffffffffffffffffffffffffffffffffffffff1673ffffffffffffffffffffffffffffffffffffffff16815260200190815260200160002060009054906101000a900460ff1615600660008373ffffffffffffffffffffffffffffffffffffffff1673ffffffffffffffffffffffffffffffffffffffff16815260200190815260200160002060006101000a81548160ff02191690831515021790555050565b600080600083604051610ea39190612fdb565b9081526020016040518091039020541480610f1a5750600160008473ffffffffffffffffffffffffffffffffffffffff1673ffffffffffffffffffffffffffffffffffffffff16815260200190815260200160002054600083604051610f099190612fdb565b908152602001604051809103902054145b905092915050565b610f2a6126ba565b60026000600484604051610f3e9190613116565b90815260200160405180910390205481526020019081526020016000206040518060c0016040529081600082015481526020016001820160009054906101000a900473ffffffffffffffffffffffffffffffffffffffff1673ffffffffffffffffffffffffffffffffffffffff1673ffffffffffffffffffffffffffffffffffffffff168152602001600282018054610fd690613021565b80601f016020809104026020016040519081016040528092919081815260200182805461100290613021565b801561104f5780601f106110245761010080835404028352916020019161104f565b820191906000526020600020905b81548152906001019060200180831161103257829003601f168201915b5050505050815260200160038201805461106890613021565b80601f016020809104026020016040519081016040528092919081815260200182805461109490613021565b80156110e15780601f106110b6576101008083540402835291602001916110e1565b820191906000526020600020905b8154815290600101906020018083116110c457829003601f168201915b505050505081526020016004820180546110fa90613021565b80601f016020809104026020016040519081016040528092919081815260200182805461112690613021565b80156111735780601f1061114857610100808354040283529160200191611173565b820191906000526020600020905b81548152906001019060200180831161115657829003601f168201915b5050505050815260200160058201805480602002602001604051908101604052809291908181526020016000905b828210156112c55783829060005260206000209060030201604051806060016040529081600082015481526020016001820180546111de90613021565b80601f016020809104026020016040519081016040528092919081815260200182805461120a90613021565b80156112575780601f1061122c57610100808354040283529160200191611257565b820191906000526020600020905b81548152906001019060200180831161123a57829003601f168201915b505050505081526020016002820160009054906101000a900473ffffffffffffffffffffffffffffffffffffffff1673ffffffffffffffffffffffffffffffffffffffff1673ffffffffffffffffffffffffffffffffffffffff1681525050815260200190600101906111a1565b50505050815250509050919050565b6112dc6126ba565b60026000600160008573ffffffffffffffffffffffffffffffffffffffff1673ffffffffffffffffffffffffffffffffffffffff1681526020019081526020016000205481526020019081526020016000206040518060c0016040529081600082015481526020016001820160009054906101000a900473ffffffffffffffffffffffffffffffffffffffff1673ffffffffffffffffffffffffffffffffffffffff1673ffffffffffffffffffffffffffffffffffffffff1681526020016002820180546113a990613021565b80601f01602080910402602001604051908101604052809291908181526020018280546113d590613021565b80156114225780601f106113f757610100808354040283529160200191611422565b820191906000526020600020905b81548152906001019060200180831161140557829003601f168201915b5050505050815260200160038201805461143b90613021565b80601f016020809104026020016040519081016040528092919081815260200182805461146790613021565b80156114b45780601f10611489576101008083540402835291602001916114b4565b820191906000526020600020905b81548152906001019060200180831161149757829003601f168201915b505050505081526020016004820180546114cd90613021565b80601f01602080910402602001604051908101604052809291908181526020018280546114f990613021565b80156115465780601f1061151b57610100808354040283529160200191611546565b820191906000526020600020905b81548152906001019060200180831161152957829003601f168201915b5050505050815260200160058201805480602002602001604051908101604052809291908181526020016000905b828210156116985783829060005260206000209060030201604051806060016040529081600082015481526020016001820180546115b190613021565b80601f01602080910402602001604051908101604052809291908181526020018280546115dd90613021565b801561162a5780601f106115ff5761010080835404028352916020019161162a565b820191906000526020600020905b81548152906001019060200180831161160d57829003601f168201915b505050505081526020016002820160009054906101000a900473ffffffffffffffffffffffffffffffffffffffff1673ffffffffffffffffffffffffffffffffffffffff1673ffffffffffffffffffffffffffffffffffffffff168152505081526020019060010190611574565b50505050815250509050919050565b6116b08361090a565b6116ef576040517f08c379a00000000000000000000000000000000000000000000000000000000081526004016116e690613179565b60405180910390fd5b80600360008573ffffffffffffffffffffffffffffffffffffffff1673ffffffffffffffffffffffffffffffffffffffff1681526020019081526020016000208360405160200161174091906132d0565b60405160208183030381529060405260405161175c9190613116565b908152602001604051809103902060006101000a81548160ff021916908315150217905550801561180d57600160008473ffffffffffffffffffffffffffffffffffffffff1673ffffffffffffffffffffffffffffffffffffffff168152602001908152602001600020546004836040516020016117da91906132d0565b6040516020818303038152906040526040516117f69190613116565b908152602001604051809103902081905550611851565b600060048360405160200161182291906132d0565b60405160208183030381529060405260405161183e9190613116565b9081526020016040518091039020819055505b505050565b8260008280604001906118699190613301565b604051611877929190613389565b90815260200160405180910390208190555082600160008473ffffffffffffffffffffffffffffffffffffffff1673ffffffffffffffffffffffffffffffffffffffff16815260200190815260200160002081905550806002600085815260200190815260200160002081816118ed9190613d90565b905050816002600085815260200190815260200160002060010160006101000a81548173ffffffffffffffffffffffffffffffffffffffff021916908373ffffffffffffffffffffffffffffffffffffffff160217905550505050565b6119a68282806040019061195e9190613301565b8080601f016020809104026020016040519081016040528093929190818152602001838380828437600081840152601f19601f82011690508083019250505050505050610e90565b6119e5576040517f08c379a00000000000000000000000000000000000000000000000000000000081526004016119dc90613dea565b60405180910390fd5b6119ee8261090a565b611b50578142604051602001611a05929190613e19565b6040516020818303038152906040528051906020012060001c600160008473ffffffffffffffffffffffffffffffffffffffff1673ffffffffffffffffffffffffffffffffffffffff168152602001908152602001600020819055504260026000600160008673ffffffffffffffffffffffffffffffffffffffff1673ffffffffffffffffffffffffffffffffffffffff168152602001908152602001600020548152602001908152602001600020600001819055508160026000600160008673ffffffffffffffffffffffffffffffffffffffff1673ffffffffffffffffffffffffffffffffffffffff16815260200190815260200160002054815260200190815260200160002060010160006101000a81548173ffffffffffffffffffffffffffffffffffffffff021916908373ffffffffffffffffffffffffffffffffffffffff1602179055505b611c9260026000600160008673ffffffffffffffffffffffffffffffffffffffff1673ffffffffffffffffffffffffffffffffffffffff1681526020019081526020016000205481526020019081526020016000206002018054611bb390613021565b80601f0160208091040260200160405190810160405280929190818152602001828054611bdf90613021565b8015611c2c5780601f10611c0157610100808354040283529160200191611c2c565b820191906000526020600020905b815481529060010190602001808311611c0f57829003601f168201915b5050505050828060400190611c419190613301565b8080601f016020809104026020016040519081016040528093929190818152602001838380828437600081840152601f19601f8201169050808301925050505050505061269290919063ffffffff16565b158015611d105750611d0e60405180602001604052806000815250828060400190611cbd9190613301565b8080601f016020809104026020016040519081016040528093929190818152602001838380828437600081840152601f19601f8201169050808301925050505050505061269290919063ffffffff16565b155b15611dfb57808060400190611d259190613301565b60026000600160008773ffffffffffffffffffffffffffffffffffffffff1673ffffffffffffffffffffffffffffffffffffffff1681526020019081526020016000205481526020019081526020016000206002019182611d879291906136cf565b50600160008373ffffffffffffffffffffffffffffffffffffffff1673ffffffffffffffffffffffffffffffffffffffff168152602001908152602001600020546000828060400190611dda9190613301565b604051611de8929190613389565b9081526020016040518091039020819055505b611f3d60026000600160008673ffffffffffffffffffffffffffffffffffffffff1673ffffffffffffffffffffffffffffffffffffffff1681526020019081526020016000205481526020019081526020016000206003018054611e5e90613021565b80601f0160208091040260200160405190810160405280929190818152602001828054611e8a90613021565b8015611ed75780601f10611eac57610100808354040283529160200191611ed7565b820191906000526020600020905b815481529060010190602001808311611eba57829003601f168201915b5050505050828060600190611eec9190613301565b8080601f016020809104026020016040519081016040528093929190818152602001838380828437600081840152601f19601f8201169050808301925050505050505061269290919063ffffffff16565b158015611fbb5750611fb960405180602001604052806000815250828060600190611f689190613301565b8080601f016020809104026020016040519081016040528093929190818152602001838380828437600081840152601f19601f8201169050808301925050505050505061269290919063ffffffff16565b155b1561203457808060600190611fd09190613301565b60026000600160008773ffffffffffffffffffffffffffffffffffffffff1673ffffffffffffffffffffffffffffffffffffffff16815260200190815260200160002054815260200190815260200160002060030191826120329291906136cf565b505b61217660026000600160008673ffffffffffffffffffffffffffffffffffffffff1673ffffffffffffffffffffffffffffffffffffffff168152602001908152602001600020548152602001908152602001600020600401805461209790613021565b80601f01602080910402602001604051908101604052809291908181526020018280546120c390613021565b80156121105780601f106120e557610100808354040283529160200191612110565b820191906000526020600020905b8154815290600101906020018083116120f357829003601f168201915b50505050508280608001906121259190613301565b8080601f016020809104026020016040519081016040528093929190818152602001838380828437600081840152601f19601f8201169050808301925050505050505061269290919063ffffffff16565b1580156121f457506121f2604051806020016040528060008152508280608001906121a19190613301565b8080601f016020809104026020016040519081016040528093929190818152602001838380828437600081840152601f19601f8201169050808301925050505050505061269290919063ffffffff16565b155b1561226d578080608001906122099190613301565b60026000600160008773ffffffffffffffffffffffffffffffffffffffff1673ffffffffffffffffffffffffffffffffffffffff168152602001908152602001600020548152602001908152602001600020600401918261226b9291906136cf565b505b6000818060a0019061227f91906137af565b9050111561268e575b808060a0019061229891906137af565b905060026000600160008673ffffffffffffffffffffffffffffffffffffffff1673ffffffffffffffffffffffffffffffffffffffff1681526020019081526020016000205481526020019081526020016000206005018054905011156123bb5760026000600160008573ffffffffffffffffffffffffffffffffffffffff1673ffffffffffffffffffffffffffffffffffffffff16815260200190815260200160002054815260200190815260200160002060050180548061235e5761235d613e42565b5b600190038181906000526020600020906003020160008082016000905560018201600061238b9190612706565b6002820160006101000a81549073ffffffffffffffffffffffffffffffffffffffff021916905550509055612288565b60005b60026000600160008673ffffffffffffffffffffffffffffffffffffffff1673ffffffffffffffffffffffffffffffffffffffff168152602001908152602001600020548152602001908152602001600020600501805490508110156124e257818060a0019061242e91906137af565b8281811061243f5761243e613e71565b5b9050602002810190612451919061381c565b60026000600160008773ffffffffffffffffffffffffffffffffffffffff1673ffffffffffffffffffffffffffffffffffffffff16815260200190815260200160002054815260200190815260200160002060050182815481106124b8576124b7613e71565b5b906000526020600020906003020181816124d29190613c42565b90505080806001019150506123be565b5060005b818060a001906124f691906137af565b905060026000600160008773ffffffffffffffffffffffffffffffffffffffff1673ffffffffffffffffffffffffffffffffffffffff16815260200190815260200160002054815260200190815260200160002060050180549050101561268c5760026000600160008673ffffffffffffffffffffffffffffffffffffffff1673ffffffffffffffffffffffffffffffffffffffff168152602001908152602001600020548152602001908152602001600020600501828060a001906125bc91906137af565b60026000600160008973ffffffffffffffffffffffffffffffffffffffff1673ffffffffffffffffffffffffffffffffffffffff16815260200190815260200160002054815260200190815260200160002060050180549050846126209190613ea0565b8181106126305761262f613e71565b5b9050602002810190612642919061381c565b908060018154018082558091505060019003906000526020600020906003020160009091909190915081816126779190613c42565b5050808061268490613ed4565b9150506124e6565b505b5050565b6000815183511480156126b2575081805190602001208380519060200120145b905092915050565b6040518060c0016040528060008152602001600073ffffffffffffffffffffffffffffffffffffffff168152602001606081526020016060815260200160608152602001606081525090565b50805461271290613021565b6000825580601f106127245750612743565b601f0160209004906000526020600020908101906127429190612746565b5b50565b5b8082111561275f576000816000905550600101612747565b5090565b6000604051905090565b600080fd5b600080fd5b600080fd5b600080fd5b6000601f19601f8301169050919050565b7f4e487b7100000000000000000000000000000000000000000000000000000000600052604160045260246000fd5b6127ca82612781565b810181811067ffffffffffffffff821117156127e9576127e8612792565b5b80604052505050565b60006127fc612763565b905061280882826127c1565b919050565b600067ffffffffffffffff82111561282857612827612792565b5b61283182612781565b9050602081019050919050565b82818337600083830152505050565b600061286061285b8461280d565b6127f2565b90508281526020810184848401111561287c5761287b61277c565b5b61288784828561283e565b509392505050565b600082601f8301126128a4576128a3612777565b5b81356128b484826020860161284d565b91505092915050565b6000602082840312156128d3576128d261276d565b5b600082013567ffffffffffffffff8111156128f1576128f0612772565b5b6128fd8482850161288f565b91505092915050565b60008115159050919050565b61291b81612906565b82525050565b60006020820190506129366000830184612912565b92915050565b6000819050919050565b61294f8161293c565b811461295a57600080fd5b50565b60008135905061296c81612946565b92915050565b6000602082840312156129885761298761276d565b5b60006129968482850161295d565b91505092915050565b6129a88161293c565b82525050565b600073ffffffffffffffffffffffffffffffffffffffff82169050919050565b60006129d9826129ae565b9050919050565b6129e9816129ce565b82525050565b600081519050919050565b600082825260208201905092915050565b60005b83811015612a29578082015181840152602081019050612a0e565b60008484015250505050565b6000612a40826129ef565b612a4a81856129fa565b9350612a5a818560208601612a0b565b612a6381612781565b840191505092915050565b600081519050919050565b600082825260208201905092915050565b6000819050602082019050919050565b6000606083016000830151612ab2600086018261299f565b5060208301518482036020860152612aca8282612a35565b9150506040830151612adf60408601826129e0565b508091505092915050565b6000612af68383612a9a565b905092915050565b6000602082019050919050565b6000612b1682612a6e565b612b208185612a79565b935083602082028501612b3285612a8a565b8060005b85811015612b6e5784840389528151612b4f8582612aea565b9450612b5a83612afe565b925060208a01995050600181019050612b36565b50829750879550505050505092915050565b600060c083016000830151612b98600086018261299f565b506020830151612bab60208601826129e0565b5060408301518482036040860152612bc38282612a35565b91505060608301518482036060860152612bdd8282612a35565b91505060808301518482036080860152612bf78282612a35565b91505060a083015184820360a0860152612c118282612b0b565b9150508091505092915050565b60006020820190508181036000830152612c388184612b80565b905092915050565b612c49816129ce565b8114612c5457600080fd5b50565b600081359050612c6681612c40565b92915050565b600080fd5b600060608284031215612c8757612c86612c6c565b5b81905092915050565b612c9981612906565b8114612ca457600080fd5b50565b600081359050612cb681612c90565b92915050565b600080600060608486031215612cd557612cd461276d565b5b6000612ce386828701612c57565b935050602084013567ffffffffffffffff811115612d0457612d03612772565b5b612d1086828701612c71565b9250506040612d2186828701612ca7565b9150509250925092565b600060c08284031215612d4157612d40612c6c565b5b81905092915050565b600080600060608486031215612d6357612d6261276d565b5b6000612d718682870161295d565b9350506020612d8286828701612c57565b925050604084013567ffffffffffffffff811115612da357612da2612772565b5b612daf86828701612d2b565b9150509250925092565b600060208284031215612dcf57612dce61276d565b5b6000612ddd84828501612c57565b91505092915050565b600060208284031215612dfc57612dfb61276d565b5b600082013567ffffffffffffffff811115612e1a57612e19612772565b5b612e2684828501612d2b565b91505092915050565b612e38816129ce565b82525050565b6000602082019050612e536000830184612e2f565b92915050565b600067ffffffffffffffff821115612e7457612e73612792565b5b612e7d82612781565b9050602081019050919050565b6000612e9d612e9884612e59565b6127f2565b905082815260208101848484011115612eb957612eb861277c565b5b612ec484828561283e565b509392505050565b600082601f830112612ee157612ee0612777565b5b8135612ef1848260208601612e8a565b91505092915050565b600060208284031215612f1057612f0f61276d565b5b600082013567ffffffffffffffff811115612f2e57612f2d612772565b5b612f3a84828501612ecc565b91505092915050565b60008060408385031215612f5a57612f5961276d565b5b6000612f6885828601612c57565b925050602083013567ffffffffffffffff811115612f8957612f88612772565b5b612f958582860161288f565b9150509250929050565b600081905092915050565b6000612fb5826129ef565b612fbf8185612f9f565b9350612fcf818560208601612a0b565b80840191505092915050565b6000612fe78284612faa565b915081905092915050565b7f4e487b7100000000000000000000000000000000000000000000000000000000600052602260045260246000fd5b6000600282049050600182168061303957607f821691505b60208210810361304c5761304b612ff2565b5b50919050565b600082825260208201905092915050565b7f6f6e6c7941646d696e0000000000000000000000000000000000000000000000600082015250565b6000613099600983613052565b91506130a482613063565b602082019050919050565b600060208201905081810360008301526130c88161308c565b9050919050565b600081519050919050565b600081905092915050565b60006130f0826130cf565b6130fa81856130da565b935061310a818560208601612a0b565b80840191505092915050565b600061312282846130e5565b915081905092915050565b7f7573657241646472657373206d75737420626520757365720000000000000000600082015250565b6000613163601883613052565b915061316e8261312d565b602082019050919050565b6000602082019050818103600083015261319281613156565b9050919050565b60006131a8602084018461295d565b905092915050565b600080fd5b600080fd5b600080fd5b600080833560016020038436030381126131dc576131db6131ba565b5b83810192508235915060208301925067ffffffffffffffff821115613204576132036131b0565b5b60018202360383131561321a576132196131b5565b5b509250929050565b600061322e83856129fa565b935061323b83858461283e565b61324483612781565b840190509392505050565b600061325e6020840184612c57565b905092915050565b6000606083016132796000840184613199565b613286600086018261299f565b5061329460208401846131bf565b85830360208701526132a7838284613222565b925050506132b8604084018461324f565b6132c560408601826129e0565b508091505092915050565b600060208201905081810360008301526132ea8184613266565b905092915050565b600080fd5b600080fd5b600080fd5b6000808335600160200384360303811261331e5761331d6132f2565b5b80840192508235915067ffffffffffffffff8211156133405761333f6132f7565b5b60208301925060018202360383131561335c5761335b6132fc565b5b509250929050565b60006133708385612f9f565b935061337d83858461283e565b82840190509392505050565b6000613396828486613364565b91508190509392505050565b7f4e487b7100000000000000000000000000000000000000000000000000000000600052600060045260246000fd5b600081356133de81612946565b80915050919050565b60008160001b9050919050565b60007fffffffffffffffffffffffffffffffffffffffffffffffffffffffffffffffff613420846133e7565b9350801983169250808416831791505092915050565b6000819050919050565b600061345b6134566134518461293c565b613436565b61293c565b9050919050565b6000819050919050565b61347582613440565b61348861348182613462565b83546133f4565b8255505050565b6000813561349c81612c40565b80915050919050565b600073ffffffffffffffffffffffffffffffffffffffff6134c5846133e7565b9350801983169250808416831791505092915050565b60006134f66134f16134ec846129ae565b613436565b6129ae565b9050919050565b6000613508826134db565b9050919050565b600061351a826134fd565b9050919050565b6000819050919050565b6135348261350f565b61354761354082613521565b83546134a5565b8255505050565b600082905092915050565b60008190508160005260206000209050919050565b60006020601f8301049050919050565b600082821b905092915050565b6000600883026135bb7fffffffffffffffffffffffffffffffffffffffffffffffffffffffffffffffff8261357e565b6135c5868361357e565b95508019841693508086168417925050509392505050565b6135e683613440565b6135fa6135f282613462565b84845461358b565b825550505050565b600090565b61360f613602565b61361a8184846135dd565b505050565b5b8181101561363e57613633600082613607565b600181019050613620565b5050565b601f8211156136835761365481613559565b61365d8461356e565b8101602085101561366c578190505b6136806136788561356e565b83018261361f565b50505b505050565b600082821c905092915050565b60006136a660001984600802613688565b1980831691505092915050565b60006136bf8383613695565b9150826002028217905092915050565b6136d9838361354e565b67ffffffffffffffff8111156136f2576136f1612792565b5b6136fc8254613021565b613707828285613642565b6000601f8311600181146137365760008415613724578287013590505b61372e85826136b3565b865550613796565b601f19841661374486613559565b60005b8281101561376c57848901358255600182019150602085019450602081019050613747565b868310156137895784890135613785601f891682613695565b8355505b6001600288020188555050505b50505050505050565b6137aa8383836136cf565b505050565b600080833560016020038436030381126137cc576137cb6132f2565b5b80840192508235915067ffffffffffffffff8211156137ee576137ed6132f7565b5b60208301925060208202360383131561380a576138096132fc565b5b509250929050565b6000819050919050565b600082356001606003833603038112613838576138376132f2565b5b80830191505092915050565b600081549050919050565b7f4e487b7100000000000000000000000000000000000000000000000000000000600052601160045260246000fd5b60006138898261293c565b91506138948361293c565b92508282026138a28161293c565b915082820484148315176138b9576138b861384f565b5b5092915050565b60008190506138d082600361387e565b9050919050565b60008190508160005260206000209050919050565b61391c7fffffffffffffffffffffffffffffffffffffffffffffffffffffffffffffffff83602003600802613688565b815481168255505050565b61393081613559565b61393b8382546136b3565b8083556000825550505050565b60208410600081146139a357601f8411600181146139715761396a86856136b3565b835561399d565b61397a83613559565b6139916139868761356e565b82016001830161361f565b61399b8785613927565b505b506139f0565b6139ac82613559565b6139b58661356e565b8101601f871680156139cf576139ce81600184036138ec565b5b6139e36139db8861356e565b84018361361f565b6001886002021785555050505b5050505050565b68010000000000000000841115613a1157613a10612792565b5b6020831060008114613a5c576020851060008114613a3a57613a3386856136b3565b8355613a56565b8360ff1916935083613a4b84613559565b556001866002020183555b50613a66565b6001856002020182555b5050505050565b8054613a7881613021565b80841115613a8d57613a8c848284866139f7565b5b80841015613aa257613aa184828486613948565b5b50505050565b81811015613ac657613abb600082613607565b600181019050613aa8565b5050565b613ad5600082613a6d565b50565b60008214613ae957613ae86133a2565b5b613af281613aca565b5050565b613b036000808301613607565b613b11600060018301613ad8565b6000600282015550565b60008214613b2c57613b2b6133a2565b5b613b3581613af6565b5050565b5b81811015613b5857613b4d600082613b1b565b600381019050613b3a565b5050565b81831015613b9557613b6d826138c0565b613b76846138c0565b613b7f836138d7565b818101838201613b8f8183613b39565b50505050505b505050565b68010000000000000000821115613bb457613bb3612792565b5b613bbd81613844565b828255613bcb838284613b5c565b505050565b600082905092915050565b600081016000830180613bed816133d1565b9050613bf9818461346c565b5050506001810160208301613c0e8185613301565b613c1981838661379f565b50505050600281016040830180613c2f8161348f565b9050613c3b818461352b565b5050505050565b613c4c8282613bdb565b5050565b613c5a8383613bd0565b613c648183613b9a565b613c6d83613812565b613c76836138d7565b60005b83811015613cad57613c8b838761381c565b613c958184613c42565b60208401935060038301925050600181019050613c79565b50505050505050565b613cc1838383613c50565b505050565b600081016000830180613cd8816133d1565b9050613ce4818461346c565b505050600181016020830180613cf98161348f565b9050613d05818461352b565b5050506002810160408301613d1a8185613301565b613d2581838661379f565b505050506003810160608301613d3b8185613301565b613d4681838661379f565b505050506004810160808301613d5c8185613301565b613d6781838661379f565b505050506005810160a08301613d7d81856137af565b613d88818386613cb6565b505050505050565b613d9a8282613cc6565b5050565b7f757365724e616d6520756e617661696c61626c65000000000000000000000000600082015250565b6000613dd4601483613052565b9150613ddf82613d9e565b602082019050919050565b60006020820190508181036000830152613e0381613dc7565b9050919050565b613e138161293c565b82525050565b6000604082019050613e2e6000830185612e2f565b613e3b6020830184613e0a565b9392505050565b7f4e487b7100000000000000000000000000000000000000000000000000000000600052603160045260246000fd5b7f4e487b7100000000000000000000000000000000000000000000000000000000600052603260045260246000fd5b6000613eab8261293c565b9150613eb68361293c565b9250828201905080821115613ece57613ecd61384f565b5b92915050565b6000613edf8261293c565b91507fffffffffffffffffffffffffffffffffffffffffffffffffffffffffffffffff8203613f1157613f1061384f565b5b60018201905091905056fea264697066735822122041bb622b119bf5db66b4b38823ad90962b6e7abbb3e35b335a849f62cbc1f58264736f6c63430008160033",
  "linkReferences": {},
  "deployedLinkReferences": {}
}